:107C000010920101109202011092030110920401DE
:107C100010920501109206011092070110920801BE
:107C20008EE080930001112484B714BE81FF06D139
:107C300085E08093810082E08093C00088E180939A
:107C4000C10086E08093C20080E18093C4008FE091
:107C5000E6D0259A86E020E33CEF91E03093850062
:107C60002093840096BBB09BFECF1D9AA8958150AF
:107C7000A9F784E06FD000E010E0AA24A394B5E057
:107C8000BB2EA1E1CA2EF3E0DF2E9CD0853569F42E
:107C90008DD0E82EFF248AD0082F10E0102F002767
:107CA0000E291F29000F111F49C0843609F03EC05C
:107CB0007DD07CD0E82E7AD080E70030180718F409
:107CC000F801D7BEE895C0E0D3E070D08993EC16F8
:107CD000E1F7F0E700301F0718F0F801D7BEE8958C
:107CE000A4D007B600FCFDCFA801A0E0B3E02C9122
:107CF00030E011968C91119790E0982F8827822B75
:107D0000932B1296FA010C01A7BEE89511244E5F41
:107D10005F4FF3E0A038BF0751F7F801B7BEE89511
:107D200007B600FCFDCFC7BEE89509C0813511F448
:107D30008AE003C0803511F480E071D076D080E114
:107D400009D0A3CF982F8091C00085FFFCCF9093DE
:107D5000C60008950F931F93CF93DF93082F1091C0
:107D600000018EE7EFDF80E0EDDF8FE0EBDF80E109
:107D7000E9DF81E0E7DFC1E0D1E08991E3DF81E085
:107D8000C930D807D1F78FEFDDDF8EEFDBDF80E082
:107D9000D9DF80E0D7DF802FD5DF100F812F8095CE
:107DA000D1DFDF91CF911F910F9108958091C00095
:107DB00087FFFCCF8091C00084FD01C0A895809111
:107DC000C60008951F93F2DF8E37E9F704C0EEDF97
:107DD0001150E9F7EBDFEADFE9DF182FE7DF803941
:107DE000B1F710E001C0E2DF1F5F1C30E1F7DEDF1A
:107DF0001F9108951F93DADFD9DFD8DF182FD6DF60
:107E000011501230E1F7D2DF182FD0DFCFDF812FF2
:107E10001F91089585B190E2892785B9FFCFE0E6EB
:107E2000F0E098E1908380830895C0DF803219F0FC
:107E30008AE0F5DFFFCFBADF84E18CCF80E0EFDFAF
:067E4000EE27FF27099464
:027FFE00040479
:0400000300007C007D
:00000001FF
