:107C000010920101109202011092030110920401DE
:107C100010920501109206011092070110920801BE
:107C20008EE080930001112484B714BE81FF20D11F
:107C300085E08093810082E08093C00088E180939A
:107C4000C10086E08093C20080E18093C4008FE091
:107C5000F1D0259A86E020E33CEF91E03093850057
:107C60002093840096BBB09BFECF1D9AA8958150AF
:107C7000A9F784E073D000E010E0AA24A394B5E053
:107C8000BB2EA1E1CA2EF3E0DF2EA0D0853569F42A
:107C900091D0E82EFF248ED0082F10E0102F00275F
:107CA0000E291F29000F111F4CC0843609F03FC058
:107CB00081D0A4D0A3D0E82EA1D080E7003018074F
:107CC00018F4F801D7BEE895C0E0D3E097D08993C7
:107CD000EC16E1F7F0E700301F0718F0F801D7BE07
:107CE000E895BED007B600FCFDCFA801A0E0B3E048
:107CF0002C9130E011968C91119790E0982F882765
:107D0000822B932B1296FA010C01A7BEE895112441
:107D10004E5F5F4FF3E0A038BF0751F7F801B7BEE1
:107D2000E89507B600FCFDCFC7BEE8950CC08135CD
:107D300011F48AE003C0803521F480E07BD080D04C
:107D400002C07ED037D080E109D09FCF982F80919C
:107D5000C00085FFFCCF9093C60008950F931F933A
:107D6000CF93DF93082F109100018EE7EFDF80E0C3
:107D7000EDDF8FE0EBDF80E1E9DF81E0E7DFC1E00D
:107D8000D1E08991E3DF81E0C930D807D1F78FEFE7
:107D9000DDDF8EEFDBDF80E0D9DF80E0D7DF802F13
:107DA000D5DF100F812F8095D1DFDF91CF911F910B
:107DB0000F9108958091C00087FFFCCF8091C00093
:107DC00084FD01C0A8958091C60008951F93F2DF3D
:107DD0008E37E9F704C0EEDF1150E9F7EBDFEADF99
:107DE000E9DF182FE7DF8039B1F710E001C0E2DFEB
:107DF0001F5F1C30E1F7DEDF1F9108951F93E6DF60
:107E0000182FD8DF812F1F9108951F93D3DFD2DF62
:107E1000D1DF182FCFDF11501230E1F7CBDF182F51
:107E2000C9DFC8DF812F1F91089585B190E28927AE
:107E300085B9FFCFE0E6F0E098E190838083089574
:107E4000B9DF803219F08AE0F5DFFFCF84E186CF19
:107E50001F93182FD3DF1150E9F7F2DF1F91089518
:107E6000CDDF803219F08AE0E5DFFFCF84E176CF05
:0A7E700080E0E0DFEE27FF27099411
:027FFE00040479
:0400000300007C007D
:00000001FF
