:107C00001092000183E18093010182EA80930201D6
:107C10001092030180E4809304018DEA80930501B2
:107C20008EEB8093060187E880930701112484B7C7
:107C300014BE81FF28D185E08093810082E080938B
:107C4000C00088E18093C10086E08093C20080E19B
:107C50008093C4008FE001D180E0FFD0259A86E0B8
:107C600020E33CEF91E0309385002093840096BBA5
:107C7000B09BFECF1D9AA8958150A9F784E08BD0C8
:107C8000EE24FF2488248394B5E09B2EA1E1AA2E44
:107C9000F3E0BF2EB4D0853579F4B1D0E82EFF24BF
:107CA000AED0082F10E0102F00270E291F29000F3B
:107CB000111FD9D0780164C0843609F040C09FD02C
:107CC0009ED0082F9CD080E0E81680E7F80618F4D4
:107CD000F701B7BEE895C0E0D3E091D089930C17C7
:107CE000E1F7F0E0EF16F0E7FF0618F0F701B7BE96
:107CF000E895B9D007B600FCFDCFA701A0E0B3E03E
:107D00002C9130E011968C91119790E0982F882754
:107D1000822B932B1296FA010C0187BEE895112451
:107D20004E5F5F4FF3E0A038BF0751F7F70197BEF2
:107D3000E89507B600FCFDCFA7BEE89521C08437C3
:107D4000B1F45DD05CD0C82E5AD08DD0F701DC2CB8
:107D50008F010F5F1F4F84911ED0DA94F801C1F795
:107D60000894E11CF11CCA94EC0CF11C09C081358B
:107D700011F48AE003C0803511F480E06ED073D036
:107D800080E109D087CF982F8091C00085FFFCCF7C
:107D90009093C60008951F93CF93DF93182F8EE71B
:107DA000F2DF80E0F0DF8FE0EEDF80E1ECDF81E00A
:107DB000EADFC0E0D1E08991E6DF81E0C830D80792
:107DC000D1F78FEFE0DF8EEFDEDF80E0DCDF80E0F9
:107DD000DADF812FD8DF1B50812F8095D4DFDF9130
:107DE000CF911F9108958091C00087FFFCCF8091B3
:107DF000C00084FD01C0A8958091C60008951F931E
:107E0000F2DF8E37E9F704C0EEDF1150E9F7EBDF60
:107E1000EADFE9DF182FE7DF8B38B1F3E4DF115039
:107E20001330E0F7E0DF182FDEDF812F1F91089578
:107E30001F93D9DFD8DFD7DF182FD5DF11501230CD
:107E4000E1F7D1DF182FCFDFCEDF812F1F9108950B
:107E500085B190E2892785B9FFCFE0E6F0E098E1AF
:107E6000908380830895CBDF803219F08AE0F5DFBC
:107E7000FFCF84E190CF1F93182FC1DF1150E9F796
:107E8000F2DF1F91089580E0E8DFEE27FF270994D5
:027FFE00040479
:0400000300007C007D
:00000001FF
