:107C00001092000183E18093010182EA80930201D6
:107C10001092030180E4809304018DEA80930501B2
:107C20008EEB8093060187E880930701112484B7C7
:107C300014BE81FF19D185E08093810082E080939A
:107C4000C00088E18093C10086E08093C20080E19B
:107C50008093C4008FE0FAD0259A86E020E33CEFC1
:107C600091E0309385002093840096BBB09BFECFBB
:107C70001D9AA8958150A9F784E0BAD0EE24FF247C
:107C800088248394B5E09B2EA1E1AA2EF3E0BF2EB9
:107C90008CD0853579F489D0E82EFF2486D0082F42
:107CA00010E0102F00270E291F29000F111FD4D01C
:107CB000780164C0843609F040C077D076D0082FB0
:107CC00074D080E0E81680E7F80618F4F701B7BE34
:107CD000E895C0E0D1E069D089930C17E1F7F0E0B6
:107CE000EF16F0E7FF0618F0F701B7BEE895B4D03D
:107CF00007B600FCFDCFA701A0E0B1E02C9130E079
:107D000011968C91119790E0982F8827822B932BB6
:107D10001296FA010C0187BEE89511244E5F5F4F61
:107D2000F1E0A038BF0751F7F70197BEE89507B615
:107D300000FCFDCFA7BEE89521C08437B1F435D053
:107D400034D0C82E32D088D0F701DC2C8F010F5FE1
:107D50001F4F84914DD0DA94F801C1F70894E11CCB
:107D6000F11CCA94EC0CF11C09C0813511F48AE0B5
:107D700003C0803511F480E069D06ED080E138D046
:107D800087CF982F8091C00085FFFCCF9093C600CD
:107D900008958091C00087FFFCCF8091C00084FDD2
:107DA00001C0A8958091C60008951F93F2DF8E3719
:107DB00011F010E00AC0EDDFECDF182FEADF115000
:107DC0001130E1F7E6DF182FE4DF812F1F910895CE
:107DD0001F93DFDFDEDFDDDF182FDBDF1150123016
:107DE000E1F7D7DF182FD5DFD4DF812F1F9108955A
:107DF0001F93CF93DF93182F8EE7C3DF80E0C1DF9F
:107E00008FE0BFDF80E1BDDF81E0BBDFC0E0D1E01C
:107E10008991B7DF81E0C830D807D1F78FEFB1DFA4
:107E20008EEFAFDF80E0ADDF80E0ABDF812FA9DF39
:107E3000812F8B508095A5DF02C0812FD9DFC8DF4D
:107E40008823D9F7DF91CF911F910895E0E6F0E004
:107E500098E1908380830895A8DF803219F088E04C
:107E6000F5DFFFCF84E1C4CF80E0F0DFEE27FF270E
:027E7000099473
:027FFE00040479
:0400000300007C007D
:00000001FF
