:107C00001092000183E18093010182EA80930201D6
:107C10001092030180E4809304018DEA80930501B2
:107C20008EEB8093060187E880930701112484B7C7
:107C300014BE81FF1BD185E08093810082E0809398
:107C4000C00088E18093C10086E08093C20080E19B
:107C50008093C4008FE0FCD0259A86E020E33CEFBF
:107C600091E0309385002093840096BBB09BFECFBB
:107C70001D9AA8958150A9F784E085D0EE24FF24B1
:107C800088248394B5E09B2EA1E1AA2EF3E0BF2EB9
:107C90008ED0853579F48BD0E82EFF2488D0082F3C
:107CA00010E0102F00270E291F29000F111FD6D01A
:107CB000780166C0843609F040C079D078D0082FAA
:107CC00076D080E0E81680E7F80618F4F701B7BE32
:107CD000E895C0E0D1E06BD089930C17E1F7F0E0B4
:107CE000EF16F0E7FF0618F0F701B7BEE895B6D03B
:107CF00007B600FCFDCFA701A0E0B1E02C9130E079
:107D000011968C91119790E0982F8827822B932BB6
:107D10001296FA010C0187BEE89511244E5F5F4F61
:107D2000F1E0A038BF0751F7F70197BEE89507B615
:107D300000FCFDCFA7BEE89523C08437B1F437D04F
:107D400036D0C82E34D08AD0F701DC2C8F010F5FDB
:107D50001F4F84914FD0DA94F801C1F70894E11CC9
:107D6000F11CCA94EC0CF11C0BC0813511F488E0B5
:107D700003C0803519F480E06BD001C03BD06ED0D9
:107D800080E138D085CF982F8091C00085FFFCCF4F
:107D90009093C60008958091C00087FFFCCF80912A
:107DA000C00084FD01C0A8958091C60008951F936E
:107DB000F2DF8E3711F010E00AC0EDDFECDF182F94
:107DC000EADF11501130E1F7E6DF182FE4DF812FF1
:107DD0001F9108951F93DFDFDEDFDDDF182FDBDF6C
:107DE00011501230E1F7D7DF182FD5DFD4DF812F04
:107DF0001F9108951F93CF93DF93182F8EE7C3DF52
:107E000080E0C1DF8FE0BFDF80E1BDDF81E0BBDF6D
:107E1000C0E0D1E08991B7DF81E0C830D807D1F761
:107E20008FEFB1DF8EEFAFDF80E0ADDF80E0ABDF63
:107E3000812FA9DF812F8B508095A5DF02C0812F74
:107E4000D9DFC8DF8823D9F7DF91CF911F9108953B
:107E5000E0E6F0E098E1908380830895A8DF803227
:107E600019F088E0F5DFFFCF84E1C4CF80E0F0DFD8
:067E7000EE27FF27099434
:027FFE00040479
:0400000300007C007D
:00000001FF
