:107C00001092000183E18093010182EA80930201D6
:107C10001092030180E4809304011092050188E929
:107C2000809306018AE380930701112484B714BE70
:107C300081FFFCD085E08093810082E08093C000CA
:107C400088E18093C10086E08093C20080E1809348
:107C5000C4008FE0DDD0259A86E020E33CEF91E080
:107C6000309385002093840096BBB09BFECF1D9A75
:107C7000A8958150A9F784E083D0EE24FF248824BE
:107C80008394B5E09B2EA1E1AA2EF3E0BF2EAED0E7
:107C9000853579F4ABD0E82EFF24A8D0082F10E06A
:107CA000102F00270E291F29000F111FB7D07801B0
:107CB00064C0843609F040C099D098D0082F96D07F
:107CC00080E0E81680E7F80618F4F701B7BEE895FB
:107CD000C0E0D1E08BD089930C17E1F7F0E0EF160C
:107CE000F0E7FF0618F0F701B7BEE89597D007B6A2
:107CF00000FCFDCFA701A0E0B1E02C9130E011968F
:107D00008C91119790E0982F8827822B932B1296B5
:107D1000FA010C0187BEE89511244E5F5F4FF1E038
:107D2000A038BF0751F7F70197BEE89507B600FCEA
:107D3000FDCFA7BEE89521C08437B1F457D056D007
:107D4000C82E54D06BD0F701DC2C8F010F5F1F4F72
:107D500084911ED0DA94F801C1F70894E11CF11C5B
:107D6000CA94EC0CF11C09C0813511F488E003C001
:107D7000803511F480E04CD051D080E109D087CF1C
:107D8000982F8091C00085FFFCCF9093C600089586
:107D90001F93CF93DF93182F8EE7F2DF80E0F0DFA1
:107DA0008CE0EEDF80E0ECDF81E0EADFC0E0D1E0F4
:107DB0008991E6DF81E0C830D807D1F780E0E0DFC5
:107DC000812FDEDF1853812F8095DADFDF91CF918D
:107DD0001F9108958091C00087FFFCCF8091C00063
:107DE00084FD01C0A8958091C60008951F93F2DF1D
:107DF000182F8E3751F4EEDFEDDF182FEBDF115027
:107E00001130E1F7E7DF182FE5DF812F1F9108958B
:107E1000E0E6F0E098E1908380830895E7DF803228
:107E200019F088E0F5DFFFCF84E1B2CF80E0F0DF2A
:067E3000EE27FF27099474
:027FFE00040479
:0400000300007C007D
:00000001FF
