:107C00001092010183E18093020182EA80930301D3
:107C10001092040180E4809305018DEA80930601AF
:107C20008EEB8093070187E88093080185EF8093AE
:107C30000001112484B714BE81FF2AD185E080930E
:107C4000810082E08093C00088E18093C10086E0DB
:107C50008093C20080E18093C4008FE003D1259A15
:107C600086E020E33CEF91E0309385002093840090
:107C700096BBB09BFECF1D9AA8958150A9F784E0D2
:107C80008BD0EE24FF2488248394B5E09B2EA1E1C1
:107C9000AA2EF3E0BF2EB8D0853579F4B5D0E82E02
:107CA000FF24B2D0082F10E0102F00270E291F2923
:107CB000000F111FDDD0780164C0843609F040C088
:107CC000A3D0A2D0082FA0D080E0E81680E7F80665
:107CD00018F4F701B7BEE895C0E0D3E095D08993DA
:107CE0000C17E1F7F0E0EF16F0E7FF0618F0F701E8
:107CF000B7BEE895BDD007B600FCFDCFA701A0E058
:107D0000B3E02C9130E011968C91119790E0982F70
:107D10008827822B932B1296FA010C0187BEE895D7
:107D200011244E5F5F4FF3E0A038BF0751F7F70112
:107D300097BEE89507B600FCFDCFA7BEE89521C029
:107D40008437B1F461D060D0C82E5ED091D0F701F5
:107D5000DC2C8F010F5F1F4F84911ED0DA94F80145
:107D6000C1F70894E11CF11CCA94EC0CF11C09C089
:107D7000813511F48AE003C0803511F480E072D0BF
:107D800077D080E109D087CF982F8091C00085FF00
:107D9000FCCF9093C60008950F931F93CF93DF936A
:107DA000082F109100018EE7EFDF80E0EDDF8FE01C
:107DB000EBDF80E1E9DF81E0E7DFC1E0D1E089913D
:107DC000E3DF81E0C930D807D1F78FEFDDDF8EEF39
:107DD000DBDF80E0D9DF80E0D7DF802FD5DF100F39
:107DE000812F8095D1DFDF91CF911F910F91089561
:107DF0008091C00087FFFCCF8091C00084FD01C04E
:107E0000A8958091C60008951F93F2DF8E37E9F799
:107E100004C0EEDF1150E9F7EBDFEADFE9DF182FEE
:107E2000E7DF8B38B1F3E4DF11501330E0F7E0DF28
:107E3000182FDEDF812F1F9108951F93D9DFD8DF20
:107E4000D7DF182FD5DF11501230E1F7D1DF182F0F
:107E5000CFDFCEDF812F1F91089585B190E2892772
:107E600085B9FFCFE0E6F0E098E190838083089544
:107E7000CBDF803219F08AE0F5DFFFCF84E18CCFD1
:107E80001F93182FC1DF1150E9F7F2DF1F910895FA
:0A7E900080E0E8DFEE27FF270994E9
:027FFE00040479
:0400000300007C007D
:00000001FF
